{"contracts/TollsMain_Hamzah.sol":{"TollsMain":{"abi":[{"anonymous":false,"inputs":[{"indexed":true,"internalType":"address","name":"buyer","type":"address"},{"indexed":false,"internalType":"uint256","name":"latitude","type":"uint256"},{"indexed":false,"internalType":"uint256","name":"longitude","type":"uint256"},{"indexed":false,"internalType":"uint256","name":"price","type":"uint256"}],"name":"LandAreaPurchased","type":"event"},{"anonymous":false,"inputs":[{"indexed":true,"internalType":"address","name":"user","type":"address"},{"indexed":false,"internalType":"uint256","name":"latitude","type":"uint256"},{"indexed":false,"internalType":"uint256","name":"longitude","type":"uint256"},{"indexed":false,"internalType":"uint256","name":"toll_amount","type":"uint256"}],"name":"TollPayment","type":"event"},{"inputs":[],"name":"LAND_OWNER_ROLE","outputs":[{"internalType":"bytes32","name":"","type":"bytes32"}],"stateMutability":"view","type":"function"},{"inputs":[],"name":"LAND_PRICE_IN_DOLLARS","outputs":[{"internalType":"uint256","name":"","type":"uint256"}],"stateMutability":"view","type":"function"},{"inputs":[],"name":"MINTER_ROLE","outputs":[{"internalType":"bytes32","name":"","type":"bytes32"}],"stateMutability":"view","type":"function"},{"inputs":[{"internalType":"uint256","name":"latitude","type":"uint256"},{"internalType":"uint256","name":"longitude","type":"uint256"}],"name":"buyLandArea","outputs":[],"stateMutability":"payable","type":"function"},{"inputs":[{"internalType":"uint256","name":"amount","type":"uint256"}],"name":"depositCredits","outputs":[],"stateMutability":"payable","type":"function"},{"inputs":[{"internalType":"address","name":"account","type":"address"}],"name":"getBalance","outputs":[{"internalType":"uint256","name":"","type":"uint256"}],"stateMutability":"view","type":"function"},{"inputs":[{"internalType":"uint256","name":"","type":"uint256"},{"internalType":"uint256","name":"","type":"uint256"}],"name":"landAreas","outputs":[{"internalType":"address","name":"owner","type":"address"},{"internalType":"uint256","name":"latitude","type":"uint256"},{"internalType":"uint256","name":"longitude","type":"uint256"},{"internalType":"uint256","name":"price","type":"uint256"}],"stateMutability":"view","type":"function"},{"inputs":[{"internalType":"uint256","name":"latitude","type":"uint256"},{"internalType":"uint256","name":"longitude","type":"uint256"},{"internalType":"uint256","name":"newPrice","type":"uint256"}],"name":"updateLandAreaPrice","outputs":[],"stateMutability":"nonpayable","type":"function"},{"inputs":[{"internalType":"uint256","name":"latitude","type":"uint256"},{"internalType":"uint256","name":"longitude","type":"uint256"}],"name":"updateLocation","outputs":[],"stateMutability":"nonpayable","type":"function"},{"inputs":[{"internalType":"address","name":"","type":"address"}],"name":"userCredit","outputs":[{"internalType":"uint256","name":"","type":"uint256"}],"stateMutability":"view","type":"function"},{"inputs":[{"internalType":"address","name":"","type":"address"}],"name":"users","outputs":[{"internalType":"address","name":"userAddress","type":"address"},{"internalType":"uint256","name":"creditBalance","type":"uint256"},{"internalType":"uint256","name":"latitude","type":"uint256"},{"internalType":"uint256","name":"longitude","type":"uint256"}],"stateMutability":"view","type":"function"}],"evm":{"bytecode":{"linkReferences":{},"object":"608060405234801561001057600080fd5b506108ce806100206000396000f3fe60806040526004361061009c5760003560e01c806341acbebd1161006457806341acbebd146101bd57806392c7a386146101dd578063a87430ba146101fd578063d53913931461024c578063d567c75214610280578063f8b2cb4f1461029357600080fd5b80630685d655146100a15780630e1111d1146101245780630faa857b1461013957806332963edc1461015c5780634191c41714610190575b600080fd5b3480156100ad57600080fd5b506100f56100bc36600461077b565b600060208181529281526040808220909352908152208054600182015460028301546003909301546001600160a01b0390921692909184565b604080516001600160a01b03909516855260208501939093529183015260608201526080015b60405180910390f35b61013761013236600461077b565b6102bb565b005b34801561014557600080fd5b5061014e600a81565b60405190815260200161011b565b34801561016857600080fd5b5061014e7f30317d22ec78f22377aeb400e492f02c987a69f6363c16b92864df4bd33428a381565b34801561019c57600080fd5b5061014e6101ab36600461079d565b60026020526000908152604090205481565b3480156101c957600080fd5b506101376101d836600461077b565b610451565b3480156101e957600080fd5b506101376101f83660046107cd565b61050a565b34801561020957600080fd5b506100f561021836600461079d565b600160208190526000918252604090912080549181015460028201546003909201546001600160a01b039093169290919084565b34801561025857600080fd5b5061014e7f9f2df0fed2c77648de5860a4cc508cd0818c85b8b8a1ab4ceeef8d981c8956a681565b61013761028e3660046107f9565b61054a565b34801561029f57600080fd5b5061014e6102ae36600461079d565b6001600160a01b03163190565b60006102c8600184610828565b905060006102d7600184610828565b90506102ec600a670de0b6b3a764000061084a565b34146103365760405162461bcd60e51b8152602060048201526014602482015273125b9cdd59999a58da595b9d081c185e5b595b9d60621b60448201526064015b60405180910390fd5b6000828152602081815260408083208484529091529020546001600160a01b0316156103a45760405162461bcd60e51b815260206004820152601a60248201527f4c616e64206172656120697320616c7265616479206f776e6564000000000000604482015260640161032d565b600082815260208181526040808320848452909152902080546001600160a01b031916331790556103de600a670de0b6b3a764000061084a565b600083815260208181526040808320858452825291829020600381018490556001810188905560020186905581518581529081018490529081019190915233907f7db42eb24b615620e8c3b978a1a7973d6e8c0b773b0601a1997d04f39ebb56f99060600160405180910390a250505050565b3360009081526001602081905260408220600281018590556003018390556104799084610828565b90506000610488600184610828565b6000838152602081815260408083208484529091529020549091506001600160a01b0316610504576000828152602081815260408083208484529091529020546001600160a01b03163381146105025760008381526020818152604080832085845290915290206003015461050033838389896105c1565b505b505b50505050565b6000610517600185610828565b90506000610526600185610828565b60009283526020838152604080852092855291905290912060030191909155505050565b6000811161059a5760405162461bcd60e51b815260206004820181905260248201527f416d6f756e74206d7573742062652067726561746572207468616e207a65726f604482015260640161032d565b33600090815260026020526040812080548392906105b9908490610869565b909155505050565b824710156106235760405162461bcd60e51b815260206004820152602960248201527f496e73756666696369656e7420636f6e74726163742062616c616e636520666f6044820152681c881c185e5b595b9d60ba1b606482015260840161032d565b6000846001600160a01b03168460405160006040518083038185875af1925050503d8060008114610670576040519150601f19603f3d011682016040523d82523d6000602084013e610675565b606091505b50509050806106b75760405162461bcd60e51b815260206004820152600e60248201526d14185e5b595b9d0819985a5b195960921b604482015260640161032d565b604080518481526020810184905290810185905233907f448f4c9296ddd7d4db3c6a03cd4ce3df63ea9d49c8c65061c1a8c2b0d0de2e029060600160405180910390a26001600160a01b03861660009081526002602052604081208054869290610722908490610881565b909155505060408051848152602081018490529081018590526001600160a01b038716907f448f4c9296ddd7d4db3c6a03cd4ce3df63ea9d49c8c65061c1a8c2b0d0de2e029060600160405180910390a2505050505050565b6000806040838503121561078e57600080fd5b50508035926020909101359150565b6000602082840312156107af57600080fd5b81356001600160a01b03811681146107c657600080fd5b9392505050565b6000806000606084860312156107e257600080fd5b505081359360208301359350604090920135919050565b60006020828403121561080b57600080fd5b5035919050565b634e487b7160e01b600052601160045260246000fd5b60008261084557634e487b7160e01b600052601260045260246000fd5b500490565b600081600019048311821515161561086457610864610812565b500290565b6000821982111561087c5761087c610812565b500190565b60008282101561089357610893610812565b50039056fea26469706673582212200ed3a13c84c01fdf3ed6ab1dfdaab03049ee2548a05b88fe72a721aac43dbbe364736f6c63430008090033","opcodes":"PUSH1 0x80 PUSH1 0x40 MSTORE CALLVALUE DUP1 ISZERO PUSH2 0x10 JUMPI PUSH1 0x0 DUP1 REVERT JUMPDEST POP PUSH2 0x8CE DUP1 PUSH2 0x20 PUSH1 0x0 CODECOPY PUSH1 0x0 RETURN INVALID PUSH1 0x80 PUSH1 0x40 MSTORE PUSH1 0x4 CALLDATASIZE LT PUSH2 0x9C JUMPI PUSH1 0x0 CALLDATALOAD PUSH1 0xE0 SHR DUP1 PUSH4 0x41ACBEBD GT PUSH2 0x64 JUMPI DUP1 PUSH4 0x41ACBEBD EQ PUSH2 0x1BD JUMPI DUP1 PUSH4 0x92C7A386 EQ PUSH2 0x1DD JUMPI DUP1 PUSH4 0xA87430BA EQ PUSH2 0x1FD JUMPI DUP1 PUSH4 0xD5391393 EQ PUSH2 0x24C JUMPI DUP1 PUSH4 0xD567C752 EQ PUSH2 0x280 JUMPI DUP1 PUSH4 0xF8B2CB4F EQ PUSH2 0x293 JUMPI PUSH1 0x0 DUP1 REVERT JUMPDEST DUP1 PUSH4 0x685D655 EQ PUSH2 0xA1 JUMPI DUP1 PUSH4 0xE1111D1 EQ PUSH2 0x124 JUMPI DUP1 PUSH4 0xFAA857B EQ PUSH2 0x139 JUMPI DUP1 PUSH4 0x32963EDC EQ PUSH2 0x15C JUMPI DUP1 PUSH4 0x4191C417 EQ PUSH2 0x190 JUMPI JUMPDEST PUSH1 0x0 DUP1 REVERT JUMPDEST CALLVALUE DUP1 ISZERO PUSH2 0xAD JUMPI PUSH1 0x0 DUP1 REVERT JUMPDEST POP PUSH2 0xF5 PUSH2 0xBC CALLDATASIZE PUSH1 0x4 PUSH2 0x77B JUMP JUMPDEST PUSH1 0x0 PUSH1 0x20 DUP2 DUP2 MSTORE SWAP3 DUP2 MSTORE PUSH1 0x40 DUP1 DUP3 KECCAK256 SWAP1 SWAP4 MSTORE SWAP1 DUP2 MSTORE KECCAK256 DUP1 SLOAD PUSH1 0x1 DUP3 ADD SLOAD PUSH1 0x2 DUP4 ADD SLOAD PUSH1 0x3 SWAP1 SWAP4 ADD SLOAD PUSH1 0x1 PUSH1 0x1 PUSH1 0xA0 SHL SUB SWAP1 SWAP3 AND SWAP3 SWAP1 SWAP2 DUP5 JUMP JUMPDEST PUSH1 0x40 DUP1 MLOAD PUSH1 0x1 PUSH1 0x1 PUSH1 0xA0 SHL SUB SWAP1 SWAP6 AND DUP6 MSTORE PUSH1 0x20 DUP6 ADD SWAP4 SWAP1 SWAP4 MSTORE SWAP2 DUP4 ADD MSTORE PUSH1 0x60 DUP3 ADD MSTORE PUSH1 0x80 ADD JUMPDEST PUSH1 0x40 MLOAD DUP1 SWAP2 SUB SWAP1 RETURN JUMPDEST PUSH2 0x137 PUSH2 0x132 CALLDATASIZE PUSH1 0x4 PUSH2 0x77B JUMP JUMPDEST PUSH2 0x2BB JUMP JUMPDEST STOP JUMPDEST CALLVALUE DUP1 ISZERO PUSH2 0x145 JUMPI PUSH1 0x0 DUP1 REVERT JUMPDEST POP PUSH2 0x14E PUSH1 0xA DUP2 JUMP JUMPDEST PUSH1 0x40 MLOAD SWAP1 DUP2 MSTORE PUSH1 0x20 ADD PUSH2 0x11B JUMP JUMPDEST CALLVALUE DUP1 ISZERO PUSH2 0x168 JUMPI PUSH1 0x0 DUP1 REVERT JUMPDEST POP PUSH2 0x14E PUSH32 0x30317D22EC78F22377AEB400E492F02C987A69F6363C16B92864DF4BD33428A3 DUP2 JUMP JUMPDEST CALLVALUE DUP1 ISZERO PUSH2 0x19C JUMPI PUSH1 0x0 DUP1 REVERT JUMPDEST POP PUSH2 0x14E PUSH2 0x1AB CALLDATASIZE PUSH1 0x4 PUSH2 0x79D JUMP JUMPDEST PUSH1 0x2 PUSH1 0x20 MSTORE PUSH1 0x0 SWAP1 DUP2 MSTORE PUSH1 0x40 SWAP1 KECCAK256 SLOAD DUP2 JUMP JUMPDEST CALLVALUE DUP1 ISZERO PUSH2 0x1C9 JUMPI PUSH1 0x0 DUP1 REVERT JUMPDEST POP PUSH2 0x137 PUSH2 0x1D8 CALLDATASIZE PUSH1 0x4 PUSH2 0x77B JUMP JUMPDEST PUSH2 0x451 JUMP JUMPDEST CALLVALUE DUP1 ISZERO PUSH2 0x1E9 JUMPI PUSH1 0x0 DUP1 REVERT JUMPDEST POP PUSH2 0x137 PUSH2 0x1F8 CALLDATASIZE PUSH1 0x4 PUSH2 0x7CD JUMP JUMPDEST PUSH2 0x50A JUMP JUMPDEST CALLVALUE DUP1 ISZERO PUSH2 0x209 JUMPI PUSH1 0x0 DUP1 REVERT JUMPDEST POP PUSH2 0xF5 PUSH2 0x218 CALLDATASIZE PUSH1 0x4 PUSH2 0x79D JUMP JUMPDEST PUSH1 0x1 PUSH1 0x20 DUP2 SWAP1 MSTORE PUSH1 0x0 SWAP2 DUP3 MSTORE PUSH1 0x40 SWAP1 SWAP2 KECCAK256 DUP1 SLOAD SWAP2 DUP2 ADD SLOAD PUSH1 0x2 DUP3 ADD SLOAD PUSH1 0x3 SWAP1 SWAP3 ADD SLOAD PUSH1 0x1 PUSH1 0x1 PUSH1 0xA0 SHL SUB SWAP1 SWAP4 AND SWAP3 SWAP1 SWAP2 SWAP1 DUP5 JUMP JUMPDEST CALLVALUE DUP1 ISZERO PUSH2 0x258 JUMPI PUSH1 0x0 DUP1 REVERT JUMPDEST POP PUSH2 0x14E PUSH32 0x9F2DF0FED2C77648DE5860A4CC508CD0818C85B8B8A1AB4CEEEF8D981C8956A6 DUP2 JUMP JUMPDEST PUSH2 0x137 PUSH2 0x28E CALLDATASIZE PUSH1 0x4 PUSH2 0x7F9 JUMP JUMPDEST PUSH2 0x54A JUMP JUMPDEST CALLVALUE DUP1 ISZERO PUSH2 0x29F JUMPI PUSH1 0x0 DUP1 REVERT JUMPDEST POP PUSH2 0x14E PUSH2 0x2AE CALLDATASIZE PUSH1 0x4 PUSH2 0x79D JUMP JUMPDEST PUSH1 0x1 PUSH1 0x1 PUSH1 0xA0 SHL SUB AND BALANCE SWAP1 JUMP JUMPDEST PUSH1 0x0 PUSH2 0x2C8 PUSH1 0x1 DUP5 PUSH2 0x828 JUMP JUMPDEST SWAP1 POP PUSH1 0x0 PUSH2 0x2D7 PUSH1 0x1 DUP5 PUSH2 0x828 JUMP JUMPDEST SWAP1 POP PUSH2 0x2EC PUSH1 0xA PUSH8 0xDE0B6B3A7640000 PUSH2 0x84A JUMP JUMPDEST CALLVALUE EQ PUSH2 0x336 JUMPI PUSH1 0x40 MLOAD PUSH3 0x461BCD PUSH1 0xE5 SHL DUP2 MSTORE PUSH1 0x20 PUSH1 0x4 DUP3 ADD MSTORE PUSH1 0x14 PUSH1 0x24 DUP3 ADD MSTORE PUSH20 0x125B9CDD59999A58DA595B9D081C185E5B595B9D PUSH1 0x62 SHL PUSH1 0x44 DUP3 ADD MSTORE PUSH1 0x64 ADD JUMPDEST PUSH1 0x40 MLOAD DUP1 SWAP2 SUB SWAP1 REVERT JUMPDEST PUSH1 0x0 DUP3 DUP2 MSTORE PUSH1 0x20 DUP2 DUP2 MSTORE PUSH1 0x40 DUP1 DUP4 KECCAK256 DUP5 DUP5 MSTORE SWAP1 SWAP2 MSTORE SWAP1 KECCAK256 SLOAD PUSH1 0x1 PUSH1 0x1 PUSH1 0xA0 SHL SUB AND ISZERO PUSH2 0x3A4 JUMPI PUSH1 0x40 MLOAD PUSH3 0x461BCD PUSH1 0xE5 SHL DUP2 MSTORE PUSH1 0x20 PUSH1 0x4 DUP3 ADD MSTORE PUSH1 0x1A PUSH1 0x24 DUP3 ADD MSTORE PUSH32 0x4C616E64206172656120697320616C7265616479206F776E6564000000000000 PUSH1 0x44 DUP3 ADD MSTORE PUSH1 0x64 ADD PUSH2 0x32D JUMP JUMPDEST PUSH1 0x0 DUP3 DUP2 MSTORE PUSH1 0x20 DUP2 DUP2 MSTORE PUSH1 0x40 DUP1 DUP4 KECCAK256 DUP5 DUP5 MSTORE SWAP1 SWAP2 MSTORE SWAP1 KECCAK256 DUP1 SLOAD PUSH1 0x1 PUSH1 0x1 PUSH1 0xA0 SHL SUB NOT AND CALLER OR SWAP1 SSTORE PUSH2 0x3DE PUSH1 0xA PUSH8 0xDE0B6B3A7640000 PUSH2 0x84A JUMP JUMPDEST PUSH1 0x0 DUP4 DUP2 MSTORE PUSH1 0x20 DUP2 DUP2 MSTORE PUSH1 0x40 DUP1 DUP4 KECCAK256 DUP6 DUP5 MSTORE DUP3 MSTORE SWAP2 DUP3 SWAP1 KECCAK256 PUSH1 0x3 DUP2 ADD DUP5 SWAP1 SSTORE PUSH1 0x1 DUP2 ADD DUP9 SWAP1 SSTORE PUSH1 0x2 ADD DUP7 SWAP1 SSTORE DUP2 MLOAD DUP6 DUP2 MSTORE SWAP1 DUP2 ADD DUP5 SWAP1 MSTORE SWAP1 DUP2 ADD SWAP2 SWAP1 SWAP2 MSTORE CALLER SWAP1 PUSH32 0x7DB42EB24B615620E8C3B978A1A7973D6E8C0B773B0601A1997D04F39EBB56F9 SWAP1 PUSH1 0x60 ADD PUSH1 0x40 MLOAD DUP1 SWAP2 SUB SWAP1 LOG2 POP POP POP POP JUMP JUMPDEST CALLER PUSH1 0x0 SWAP1 DUP2 MSTORE PUSH1 0x1 PUSH1 0x20 DUP2 SWAP1 MSTORE PUSH1 0x40 DUP3 KECCAK256 PUSH1 0x2 DUP2 ADD DUP6 SWAP1 SSTORE PUSH1 0x3 ADD DUP4 SWAP1 SSTORE PUSH2 0x479 SWAP1 DUP5 PUSH2 0x828 JUMP JUMPDEST SWAP1 POP PUSH1 0x0 PUSH2 0x488 PUSH1 0x1 DUP5 PUSH2 0x828 JUMP JUMPDEST PUSH1 0x0 DUP4 DUP2 MSTORE PUSH1 0x20 DUP2 DUP2 MSTORE PUSH1 0x40 DUP1 DUP4 KECCAK256 DUP5 DUP5 MSTORE SWAP1 SWAP2 MSTORE SWAP1 KECCAK256 SLOAD SWAP1 SWAP2 POP PUSH1 0x1 PUSH1 0x1 PUSH1 0xA0 SHL SUB AND PUSH2 0x504 JUMPI PUSH1 0x0 DUP3 DUP2 MSTORE PUSH1 0x20 DUP2 DUP2 MSTORE PUSH1 0x40 DUP1 DUP4 KECCAK256 DUP5 DUP5 MSTORE SWAP1 SWAP2 MSTORE SWAP1 KECCAK256 SLOAD PUSH1 0x1 PUSH1 0x1 PUSH1 0xA0 SHL SUB AND CALLER DUP2 EQ PUSH2 0x502 JUMPI PUSH1 0x0 DUP4 DUP2 MSTORE PUSH1 0x20 DUP2 DUP2 MSTORE PUSH1 0x40 DUP1 DUP4 KECCAK256 DUP6 DUP5 MSTORE SWAP1 SWAP2 MSTORE SWAP1 KECCAK256 PUSH1 0x3 ADD SLOAD PUSH2 0x500 CALLER DUP4 DUP4 DUP10 DUP10 PUSH2 0x5C1 JUMP JUMPDEST POP JUMPDEST POP JUMPDEST POP POP POP POP JUMP JUMPDEST PUSH1 0x0 PUSH2 0x517 PUSH1 0x1 DUP6 PUSH2 0x828 JUMP JUMPDEST SWAP1 POP PUSH1 0x0 PUSH2 0x526 PUSH1 0x1 DUP6 PUSH2 0x828 JUMP JUMPDEST PUSH1 0x0 SWAP3 DUP4 MSTORE PUSH1 0x20 DUP4 DUP2 MSTORE PUSH1 0x40 DUP1 DUP6 KECCAK256 SWAP3 DUP6 MSTORE SWAP2 SWAP1 MSTORE SWAP1 SWAP2 KECCAK256 PUSH1 0x3 ADD SWAP2 SWAP1 SWAP2 SSTORE POP POP POP JUMP JUMPDEST PUSH1 0x0 DUP2 GT PUSH2 0x59A JUMPI PUSH1 0x40 MLOAD PUSH3 0x461BCD PUSH1 0xE5 SHL DUP2 MSTORE PUSH1 0x20 PUSH1 0x4 DUP3 ADD DUP2 SWAP1 MSTORE PUSH1 0x24 DUP3 ADD MSTORE PUSH32 0x416D6F756E74206D7573742062652067726561746572207468616E207A65726F PUSH1 0x44 DUP3 ADD MSTORE PUSH1 0x64 ADD PUSH2 0x32D JUMP JUMPDEST CALLER PUSH1 0x0 SWAP1 DUP2 MSTORE PUSH1 0x2 PUSH1 0x20 MSTORE PUSH1 0x40 DUP2 KECCAK256 DUP1 SLOAD DUP4 SWAP3 SWAP1 PUSH2 0x5B9 SWAP1 DUP5 SWAP1 PUSH2 0x869 JUMP JUMPDEST SWAP1 SWAP2 SSTORE POP POP POP JUMP JUMPDEST DUP3 SELFBALANCE LT ISZERO PUSH2 0x623 JUMPI PUSH1 0x40 MLOAD PUSH3 0x461BCD PUSH1 0xE5 SHL DUP2 MSTORE PUSH1 0x20 PUSH1 0x4 DUP3 ADD MSTORE PUSH1 0x29 PUSH1 0x24 DUP3 ADD MSTORE PUSH32 0x496E73756666696369656E7420636F6E74726163742062616C616E636520666F PUSH1 0x44 DUP3 ADD MSTORE PUSH9 0x1C881C185E5B595B9D PUSH1 0xBA SHL PUSH1 0x64 DUP3 ADD MSTORE PUSH1 0x84 ADD PUSH2 0x32D JUMP JUMPDEST PUSH1 0x0 DUP5 PUSH1 0x1 PUSH1 0x1 PUSH1 0xA0 SHL SUB AND DUP5 PUSH1 0x40 MLOAD PUSH1 0x0 PUSH1 0x40 MLOAD DUP1 DUP4 SUB DUP2 DUP6 DUP8 GAS CALL SWAP3 POP POP POP RETURNDATASIZE DUP1 PUSH1 0x0 DUP2 EQ PUSH2 0x670 JUMPI PUSH1 0x40 MLOAD SWAP2 POP PUSH1 0x1F NOT PUSH1 0x3F RETURNDATASIZE ADD AND DUP3 ADD PUSH1 0x40 MSTORE RETURNDATASIZE DUP3 MSTORE RETURNDATASIZE PUSH1 0x0 PUSH1 0x20 DUP5 ADD RETURNDATACOPY PUSH2 0x675 JUMP JUMPDEST PUSH1 0x60 SWAP2 POP JUMPDEST POP POP SWAP1 POP DUP1 PUSH2 0x6B7 JUMPI PUSH1 0x40 MLOAD PUSH3 0x461BCD PUSH1 0xE5 SHL DUP2 MSTORE PUSH1 0x20 PUSH1 0x4 DUP3 ADD MSTORE PUSH1 0xE PUSH1 0x24 DUP3 ADD MSTORE PUSH14 0x14185E5B595B9D0819985A5B1959 PUSH1 0x92 SHL PUSH1 0x44 DUP3 ADD MSTORE PUSH1 0x64 ADD PUSH2 0x32D JUMP JUMPDEST PUSH1 0x40 DUP1 MLOAD DUP5 DUP2 MSTORE PUSH1 0x20 DUP2 ADD DUP5 SWAP1 MSTORE SWAP1 DUP2 ADD DUP6 SWAP1 MSTORE CALLER SWAP1 PUSH32 0x448F4C9296DDD7D4DB3C6A03CD4CE3DF63EA9D49C8C65061C1A8C2B0D0DE2E02 SWAP1 PUSH1 0x60 ADD PUSH1 0x40 MLOAD DUP1 SWAP2 SUB SWAP1 LOG2 PUSH1 0x1 PUSH1 0x1 PUSH1 0xA0 SHL SUB DUP7 AND PUSH1 0x0 SWAP1 DUP2 MSTORE PUSH1 0x2 PUSH1 0x20 MSTORE PUSH1 0x40 DUP2 KECCAK256 DUP1 SLOAD DUP7 SWAP3 SWAP1 PUSH2 0x722 SWAP1 DUP5 SWAP1 PUSH2 0x881 JUMP JUMPDEST SWAP1 SWAP2 SSTORE POP POP PUSH1 0x40 DUP1 MLOAD DUP5 DUP2 MSTORE PUSH1 0x20 DUP2 ADD DUP5 SWAP1 MSTORE SWAP1 DUP2 ADD DUP6 SWAP1 MSTORE PUSH1 0x1 PUSH1 0x1 PUSH1 0xA0 SHL SUB DUP8 AND SWAP1 PUSH32 0x448F4C9296DDD7D4DB3C6A03CD4CE3DF63EA9D49C8C65061C1A8C2B0D0DE2E02 SWAP1 PUSH1 0x60 ADD PUSH1 0x40 MLOAD DUP1 SWAP2 SUB SWAP1 LOG2 POP POP POP POP POP POP JUMP JUMPDEST PUSH1 0x0 DUP1 PUSH1 0x40 DUP4 DUP6 SUB SLT ISZERO PUSH2 0x78E JUMPI PUSH1 0x0 DUP1 REVERT JUMPDEST POP POP DUP1 CALLDATALOAD SWAP3 PUSH1 0x20 SWAP1 SWAP2 ADD CALLDATALOAD SWAP2 POP JUMP JUMPDEST PUSH1 0x0 PUSH1 0x20 DUP3 DUP5 SUB SLT ISZERO PUSH2 0x7AF JUMPI PUSH1 0x0 DUP1 REVERT JUMPDEST DUP2 CALLDATALOAD PUSH1 0x1 PUSH1 0x1 PUSH1 0xA0 SHL SUB DUP2 AND DUP2 EQ PUSH2 0x7C6 JUMPI PUSH1 0x0 DUP1 REVERT JUMPDEST SWAP4 SWAP3 POP POP POP JUMP JUMPDEST PUSH1 0x0 DUP1 PUSH1 0x0 PUSH1 0x60 DUP5 DUP7 SUB SLT ISZERO PUSH2 0x7E2 JUMPI PUSH1 0x0 DUP1 REVERT JUMPDEST POP POP DUP2 CALLDATALOAD SWAP4 PUSH1 0x20 DUP4 ADD CALLDATALOAD SWAP4 POP PUSH1 0x40 SWAP1 SWAP3 ADD CALLDATALOAD SWAP2 SWAP1 POP JUMP JUMPDEST PUSH1 0x0 PUSH1 0x20 DUP3 DUP5 SUB SLT ISZERO PUSH2 0x80B JUMPI PUSH1 0x0 DUP1 REVERT JUMPDEST POP CALLDATALOAD SWAP2 SWAP1 POP JUMP JUMPDEST PUSH4 0x4E487B71 PUSH1 0xE0 SHL PUSH1 0x0 MSTORE PUSH1 0x11 PUSH1 0x4 MSTORE PUSH1 0x24 PUSH1 0x0 REVERT JUMPDEST PUSH1 0x0 DUP3 PUSH2 0x845 JUMPI PUSH4 0x4E487B71 PUSH1 0xE0 SHL PUSH1 0x0 MSTORE PUSH1 0x12 PUSH1 0x4 MSTORE PUSH1 0x24 PUSH1 0x0 REVERT JUMPDEST POP DIV SWAP1 JUMP JUMPDEST PUSH1 0x0 DUP2 PUSH1 0x0 NOT DIV DUP4 GT DUP3 ISZERO ISZERO AND ISZERO PUSH2 0x864 JUMPI PUSH2 0x864 PUSH2 0x812 JUMP JUMPDEST POP MUL SWAP1 JUMP JUMPDEST PUSH1 0x0 DUP3 NOT DUP3 GT ISZERO PUSH2 0x87C JUMPI PUSH2 0x87C PUSH2 0x812 JUMP JUMPDEST POP ADD SWAP1 JUMP JUMPDEST PUSH1 0x0 DUP3 DUP3 LT ISZERO PUSH2 0x893 JUMPI PUSH2 0x893 PUSH2 0x812 JUMP JUMPDEST POP SUB SWAP1 JUMP INVALID LOG2 PUSH5 0x6970667358 0x22 SLT KECCAK256 0xE 0xD3 LOG1 EXTCODECOPY DUP5 0xC0 0x1F 0xDF RETURNDATACOPY 0xD6 0xAB SAR REVERT 0xAA 0xB0 ADDRESS 0x49 0xEE 0x25 BASEFEE LOG0 JUMPDEST DUP9 INVALID PUSH19 0xA721AAC43DBBE364736F6C6343000809003300 "},"methodIdentifiers":{"LAND_OWNER_ROLE()":"32963edc","LAND_PRICE_IN_DOLLARS()":"0faa857b","MINTER_ROLE()":"d5391393","buyLandArea(uint256,uint256)":"0e1111d1","depositCredits(uint256)":"d567c752","getBalance(address)":"f8b2cb4f","landAreas(uint256,uint256)":"0685d655","updateLandAreaPrice(uint256,uint256,uint256)":"92c7a386","updateLocation(uint256,uint256)":"41acbebd","userCredit(address)":"4191c417","users(address)":"a87430ba"}}}}}