{
  "_format": "hh-sol-artifact-1",
  "contractName": "HelloWorld",
  "sourceName": "contracts/HelloWorld.sol",
  "abi": [
    {
      "inputs": [
        {
          "internalType": "string",
          "name": "initMessage",
          "type": "string"
        }
      ],
      "stateMutability": "nonpayable",
      "type": "constructor"
    },
    {
      "anonymous": false,
      "inputs": [
        {
          "indexed": false,
          "internalType": "string",
          "name": "oldStr",
          "type": "string"
        },
        {
          "indexed": false,
          "internalType": "string",
          "name": "newStr",
          "type": "string"
        }
      ],
      "name": "UpdatedMessages",
      "type": "event"
    },
    {
      "inputs": [],
      "name": "message",
      "outputs": [
        {
          "internalType": "string",
          "name": "",
          "type": "string"
        }
      ],
      "stateMutability": "view",
      "type": "function"
    },
    {
      "inputs": [
        {
          "internalType": "string",
          "name": "newMessage",
          "type": "string"
        }
      ],
      "name": "update",
      "outputs": [],
      "stateMutability": "nonpayable",
      "type": "function"
    }
  ],
  "bytecode": "0x608060405234801561001057600080fd5b5060405161065438038061065483398101604081905261002f916100f8565b8051610042906000906020840190610049565b5050610202565b828054610055906101c7565b90600052602060002090601f01602090048101928261007757600085556100bd565b82601f1061009057805160ff19168380011785556100bd565b828001600101855582156100bd579182015b828111156100bd5782518255916020019190600101906100a2565b506100c99291506100cd565b5090565b5b808211156100c957600081556001016100ce565b634e487b7160e01b600052604160045260246000fd5b6000602080838503121561010b57600080fd5b82516001600160401b038082111561012257600080fd5b818501915085601f83011261013657600080fd5b815181811115610148576101486100e2565b604051601f8201601f19908116603f01168101908382118183101715610170576101706100e2565b81604052828152888684870101111561018857600080fd5b600093505b828410156101aa578484018601518185018701529285019261018d565b828411156101bb5760008684830101525b98975050505050505050565b600181811c908216806101db57607f821691505b602082108114156101fc57634e487b7160e01b600052602260045260246000fd5b50919050565b610443806102116000396000f3fe608060405234801561001057600080fd5b50600436106100365760003560e01c80633d7403a31461003b578063e21f37ce14610050575b600080fd5b61004e61004936600461028c565b61006e565b005b61005861014f565b604051610065919061038a565b60405180910390f35b600080805461007c906103a4565b80601f01602080910402602001604051908101604052809291908181526020018280546100a8906103a4565b80156100f55780601f106100ca576101008083540402835291602001916100f5565b820191906000526020600020905b8154815290600101906020018083116100d857829003601f168201915b50508551939450610111936000935060208701925090506101dd565b507ff91d506d7335e83e4869a58cd98e0557cdcef6f507ba1e52725521305626d05b81836040516101439291906103df565b60405180910390a15050565b6000805461015c906103a4565b80601f0160208091040260200160405190810160405280929190818152602001828054610188906103a4565b80156101d55780601f106101aa576101008083540402835291602001916101d5565b820191906000526020600020905b8154815290600101906020018083116101b857829003601f168201915b505050505081565b8280546101e9906103a4565b90600052602060002090601f01602090048101928261020b5760008555610251565b82601f1061022457805160ff1916838001178555610251565b82800160010185558215610251579182015b82811115610251578251825591602001919060010190610236565b5061025d929150610261565b5090565b5b8082111561025d5760008155600101610262565b634e487b7160e01b600052604160045260246000fd5b60006020828403121561029e57600080fd5b813567ffffffffffffffff808211156102b657600080fd5b818401915084601f8301126102ca57600080fd5b8135818111156102dc576102dc610276565b604051601f8201601f19908116603f0116810190838211818310171561030457610304610276565b8160405282815287602084870101111561031d57600080fd5b826020860160208301376000928101602001929092525095945050505050565b6000815180845260005b8181101561036357602081850181015186830182015201610347565b81811115610375576000602083870101525b50601f01601f19169290920160200192915050565b60208152600061039d602083018461033d565b9392505050565b600181811c908216806103b857607f821691505b602082108114156103d957634e487b7160e01b600052602260045260246000fd5b50919050565b6040815260006103f2604083018561033d565b8281036020840152610404818561033d565b9594505050505056fea26469706673582212207b40d9b16e421d1470ffd11f86b35488a29a3a8b29b844972764c8fdb21384a364736f6c63430008090033",
  "linkReferences": {},
  "deployedLinkReferences": {}
}