{
  "_format": "hh-sol-artifact-1",
  "contractName": "TollsMain",
  "sourceName": "contracts/TollsMain.sol",
  "abi": [
    {
      "anonymous": false,
      "inputs": [
        {
          "indexed": true,
          "internalType": "address",
          "name": "user",
          "type": "address"
        },
        {
          "indexed": false,
          "internalType": "uint256",
          "name": "amount",
          "type": "uint256"
        }
      ],
      "name": "CreditDeposited",
      "type": "event"
    },
    {
      "anonymous": false,
      "inputs": [
        {
          "indexed": true,
          "internalType": "address",
          "name": "buyer",
          "type": "address"
        },
        {
          "indexed": false,
          "internalType": "uint256",
          "name": "latitude",
          "type": "uint256"
        },
        {
          "indexed": false,
          "internalType": "uint256",
          "name": "longitude",
          "type": "uint256"
        },
        {
          "indexed": false,
          "internalType": "uint256",
          "name": "price",
          "type": "uint256"
        }
      ],
      "name": "LandAreaPurchased",
      "type": "event"
    },
    {
      "anonymous": false,
      "inputs": [
        {
          "indexed": true,
          "internalType": "address",
          "name": "user",
          "type": "address"
        },
        {
          "indexed": false,
          "internalType": "uint256",
          "name": "latitude",
          "type": "uint256"
        },
        {
          "indexed": false,
          "internalType": "uint256",
          "name": "longitude",
          "type": "uint256"
        },
        {
          "indexed": false,
          "internalType": "uint256",
          "name": "toll_amount",
          "type": "uint256"
        }
      ],
      "name": "TollPayment",
      "type": "event"
    },
    {
      "inputs": [],
      "name": "LAND_OWNER_ROLE",
      "outputs": [
        {
          "internalType": "bytes32",
          "name": "",
          "type": "bytes32"
        }
      ],
      "stateMutability": "view",
      "type": "function"
    },
    {
      "inputs": [],
      "name": "MINTER_ROLE",
      "outputs": [
        {
          "internalType": "bytes32",
          "name": "",
          "type": "bytes32"
        }
      ],
      "stateMutability": "view",
      "type": "function"
    },
    {
      "inputs": [
        {
          "internalType": "uint256",
          "name": "latitude",
          "type": "uint256"
        },
        {
          "internalType": "uint256",
          "name": "longitude",
          "type": "uint256"
        }
      ],
      "name": "buyLandArea",
      "outputs": [],
      "stateMutability": "payable",
      "type": "function"
    },
    {
      "inputs": [
        {
          "internalType": "uint256",
          "name": "amount",
          "type": "uint256"
        }
      ],
      "name": "depositCredits",
      "outputs": [],
      "stateMutability": "nonpayable",
      "type": "function"
    },
    {
      "inputs": [
        {
          "internalType": "address",
          "name": "account",
          "type": "address"
        }
      ],
      "name": "getCreditBalance",
      "outputs": [
        {
          "internalType": "uint256",
          "name": "",
          "type": "uint256"
        }
      ],
      "stateMutability": "view",
      "type": "function"
    },
    {
      "inputs": [
        {
          "internalType": "uint256",
          "name": "",
          "type": "uint256"
        },
        {
          "internalType": "uint256",
          "name": "",
          "type": "uint256"
        }
      ],
      "name": "landAreas",
      "outputs": [
        {
          "internalType": "address",
          "name": "owner",
          "type": "address"
        },
        {
          "internalType": "uint256",
          "name": "latitude",
          "type": "uint256"
        },
        {
          "internalType": "uint256",
          "name": "longitude",
          "type": "uint256"
        },
        {
          "internalType": "uint256",
          "name": "price",
          "type": "uint256"
        }
      ],
      "stateMutability": "view",
      "type": "function"
    },
    {
      "inputs": [
        {
          "internalType": "uint256",
          "name": "latitude",
          "type": "uint256"
        },
        {
          "internalType": "uint256",
          "name": "longitude",
          "type": "uint256"
        },
        {
          "internalType": "uint256",
          "name": "newPrice",
          "type": "uint256"
        }
      ],
      "name": "updateLandAreaPrice",
      "outputs": [],
      "stateMutability": "nonpayable",
      "type": "function"
    },
    {
      "inputs": [
        {
          "internalType": "uint256",
          "name": "latitude",
          "type": "uint256"
        },
        {
          "internalType": "uint256",
          "name": "longitude",
          "type": "uint256"
        }
      ],
      "name": "updateLocation",
      "outputs": [],
      "stateMutability": "nonpayable",
      "type": "function"
    },
    {
      "inputs": [
        {
          "internalType": "address",
          "name": "",
          "type": "address"
        }
      ],
      "name": "userCredit",
      "outputs": [
        {
          "internalType": "uint256",
          "name": "",
          "type": "uint256"
        }
      ],
      "stateMutability": "view",
      "type": "function"
    },
    {
      "inputs": [
        {
          "internalType": "address",
          "name": "",
          "type": "address"
        }
      ],
      "name": "users",
      "outputs": [
        {
          "internalType": "address",
          "name": "user",
          "type": "address"
        },
        {
          "internalType": "uint256",
          "name": "latitude",
          "type": "uint256"
        },
        {
          "internalType": "uint256",
          "name": "longitude",
          "type": "uint256"
        },
        {
          "internalType": "uint256",
          "name": "creditBalance",
          "type": "uint256"
        }
      ],
      "stateMutability": "view",
      "type": "function"
    }
  ],
  "bytecode": "0x608060405234801561001057600080fd5b5061087b806100206000396000f3fe6080604052600436106100915760003560e01c80636add1b3f116100595780636add1b3f146101bd57806392c7a386146101f3578063a87430ba14610213578063d539139314610262578063d567c7521461029657600080fd5b80630685d655146100965780630e1111d11461011957806332963edc1461012e5780634191c4171461017057806341acbebd1461019d575b600080fd5b3480156100a257600080fd5b506100ea6100b1366004610747565b600060208181529281526040808220909352908152208054600182015460028301546003909301546001600160a01b0390921692909184565b604080516001600160a01b03909516855260208501939093529183015260608201526080015b60405180910390f35b61012c610127366004610747565b6102b6565b005b34801561013a57600080fd5b506101627f30317d22ec78f22377aeb400e492f02c987a69f6363c16b92864df4bd33428a381565b604051908152602001610110565b34801561017c57600080fd5b5061016261018b366004610769565b60026020526000908152604090205481565b3480156101a957600080fd5b5061012c6101b8366004610747565b61044b565b3480156101c957600080fd5b506101626101d8366004610769565b6001600160a01b031660009081526002602052604090205490565b3480156101ff57600080fd5b5061012c61020e366004610799565b6104da565b34801561021f57600080fd5b506100ea61022e366004610769565b600160208190526000918252604090912080549181015460028201546003909201546001600160a01b039093169290919084565b34801561026e57600080fd5b506101627f9f2df0fed2c77648de5860a4cc508cd0818c85b8b8a1ab4ceeef8d981c8956a681565b3480156102a257600080fd5b5061012c6102b13660046107c5565b610599565b60006102c36001846107f4565b905060006102d26001846107f4565b9050655af3107a40003410156103265760405162461bcd60e51b8152602060048201526014602482015273125b9cdd59999a58da595b9d081c185e5b595b9d60621b60448201526064015b60405180910390fd5b6000828152602081815260408083208484529091529020546001600160a01b0316156103945760405162461bcd60e51b815260206004820152601a60248201527f4c616e64206172656120697320616c7265616479206f776e6564000000000000604482015260640161031d565b60408051608081018252338082526020808301888152838501888152655af3107a4000606080870191825260008a81528086528881208a82528652889020875181546001600160a01b0319166001600160a01b039091161781559351600185015591516002840155516003909201829055855188815292830187905294820152919290917f7db42eb24b615620e8c3b978a1a7973d6e8c0b773b0601a1997d04f39ebb56f991015b60405180910390a25050505050565b336000908152600160208190526040822080820185905560020183905561047290846107f4565b905060006104816001846107f4565b6000838152602081815260408083208484529091529020549091506001600160a01b031680158015906104bd57506001600160a01b0381163314155b156104d35760056104d13383838989610645565b505b5050505050565b60006104e76001856107f4565b905060006104f66001856107f4565b6000838152602081815260408083208484529091529020549091506001600160a01b0316331461057a5760405162461bcd60e51b815260206004820152602960248201527f596f7520617265206e6f74207065726d697474656420746f206368616e67652060448201526874686520707269636560b81b606482015260840161031d565b6000918252602082815260408084209284529190529020600301555050565b600081116105e95760405162461bcd60e51b815260206004820181905260248201527f416d6f756e74206d7573742062652067726561746572207468616e207a65726f604482015260640161031d565b3360009081526002602052604081208054839290610608908490610816565b909155505060405181815233907f2f278cf5a42176fbdf59ee579498869d5c3005156b7a8013c5adc90797a086c59060200160405180910390a250565b6001600160a01b0385166000908152600260205260409020548311156106ad5760405162461bcd60e51b815260206004820181905260248201527f496e73756666696369656e742062616c616e636520666f72207061796d656e74604482015260640161031d565b6001600160a01b038516600090815260026020526040812080548592906106d590849061082e565b90915550506001600160a01b03841660009081526002602052604081208054859290610702908490610816565b9091555050604080518381526020810183905290810184905233907f448f4c9296ddd7d4db3c6a03cd4ce3df63ea9d49c8c65061c1a8c2b0d0de2e029060600161043c565b6000806040838503121561075a57600080fd5b50508035926020909101359150565b60006020828403121561077b57600080fd5b81356001600160a01b038116811461079257600080fd5b9392505050565b6000806000606084860312156107ae57600080fd5b505081359360208301359350604090920135919050565b6000602082840312156107d757600080fd5b5035919050565b634e487b7160e01b600052601160045260246000fd5b60008261081157634e487b7160e01b600052601260045260246000fd5b500490565b60008219821115610829576108296107de565b500190565b600082821015610840576108406107de565b50039056fea2646970667358221220ce0be71f9e6efa45ed618d422089960ae69bfd687a4dee8d60222923718b108064736f6c63430008090033",
  "linkReferences": {},
  "deployedLinkReferences": {}
}