{
  "_format": "hh-sol-artifact-1",
  "contractName": "TollsMain",
  "sourceName": "contracts/TollsMain.sol",
  "abi": [
    {
      "anonymous": false,
      "inputs": [
        {
          "indexed": true,
          "internalType": "address",
          "name": "user",
          "type": "address"
        },
        {
          "indexed": false,
          "internalType": "uint256",
          "name": "amount",
          "type": "uint256"
        }
      ],
      "name": "CreditDeposited",
      "type": "event"
    },
    {
      "anonymous": false,
      "inputs": [
        {
          "indexed": true,
          "internalType": "address",
          "name": "buyer",
          "type": "address"
        },
        {
          "indexed": false,
          "internalType": "uint256",
          "name": "latitude",
          "type": "uint256"
        },
        {
          "indexed": false,
          "internalType": "uint256",
          "name": "longitude",
          "type": "uint256"
        },
        {
          "indexed": false,
          "internalType": "uint256",
          "name": "price",
          "type": "uint256"
        }
      ],
      "name": "LandAreaPurchased",
      "type": "event"
    },
    {
      "anonymous": false,
      "inputs": [
        {
          "indexed": true,
          "internalType": "address",
          "name": "user",
          "type": "address"
        },
        {
          "indexed": false,
          "internalType": "uint256",
          "name": "latitude",
          "type": "uint256"
        },
        {
          "indexed": false,
          "internalType": "uint256",
          "name": "longitude",
          "type": "uint256"
        },
        {
          "indexed": false,
          "internalType": "uint256",
          "name": "toll_amount",
          "type": "uint256"
        }
      ],
      "name": "TollPayment",
      "type": "event"
    },
    {
      "inputs": [],
      "name": "LAND_OWNER_ROLE",
      "outputs": [
        {
          "internalType": "bytes32",
          "name": "",
          "type": "bytes32"
        }
      ],
      "stateMutability": "view",
      "type": "function"
    },
    {
      "inputs": [],
      "name": "LAND_PRICE_DEFAULT",
      "outputs": [
        {
          "internalType": "uint256",
          "name": "",
          "type": "uint256"
        }
      ],
      "stateMutability": "view",
      "type": "function"
    },
    {
      "inputs": [],
      "name": "MINTER_ROLE",
      "outputs": [
        {
          "internalType": "bytes32",
          "name": "",
          "type": "bytes32"
        }
      ],
      "stateMutability": "view",
      "type": "function"
    },
    {
      "inputs": [
        {
          "internalType": "uint256",
          "name": "latitude",
          "type": "uint256"
        },
        {
          "internalType": "uint256",
          "name": "longitude",
          "type": "uint256"
        }
      ],
      "name": "buyLandArea",
      "outputs": [],
      "stateMutability": "payable",
      "type": "function"
    },
    {
      "inputs": [
        {
          "internalType": "uint256",
          "name": "amount",
          "type": "uint256"
        }
      ],
      "name": "depositCredits",
      "outputs": [],
      "stateMutability": "nonpayable",
      "type": "function"
    },
    {
      "inputs": [
        {
          "internalType": "address",
          "name": "account",
          "type": "address"
        }
      ],
      "name": "getCreditBalance",
      "outputs": [
        {
          "internalType": "uint256",
          "name": "",
          "type": "uint256"
        }
      ],
      "stateMutability": "view",
      "type": "function"
    },
    {
      "inputs": [
        {
          "internalType": "uint256",
          "name": "",
          "type": "uint256"
        },
        {
          "internalType": "uint256",
          "name": "",
          "type": "uint256"
        }
      ],
      "name": "landAreas",
      "outputs": [
        {
          "internalType": "address",
          "name": "owner",
          "type": "address"
        },
        {
          "internalType": "uint256",
          "name": "latitude",
          "type": "uint256"
        },
        {
          "internalType": "uint256",
          "name": "longitude",
          "type": "uint256"
        },
        {
          "internalType": "uint256",
          "name": "price",
          "type": "uint256"
        }
      ],
      "stateMutability": "view",
      "type": "function"
    },
    {
      "inputs": [
        {
          "internalType": "uint256",
          "name": "latitude",
          "type": "uint256"
        },
        {
          "internalType": "uint256",
          "name": "longitude",
          "type": "uint256"
        },
        {
          "internalType": "uint256",
          "name": "newPrice",
          "type": "uint256"
        }
      ],
      "name": "updateLandAreaPrice",
      "outputs": [],
      "stateMutability": "nonpayable",
      "type": "function"
    },
    {
      "inputs": [
        {
          "internalType": "uint256",
          "name": "latitude",
          "type": "uint256"
        },
        {
          "internalType": "uint256",
          "name": "longitude",
          "type": "uint256"
        }
      ],
      "name": "updateLocation",
      "outputs": [],
      "stateMutability": "nonpayable",
      "type": "function"
    },
    {
      "inputs": [
        {
          "internalType": "address",
          "name": "",
          "type": "address"
        }
      ],
      "name": "userCredit",
      "outputs": [
        {
          "internalType": "uint256",
          "name": "",
          "type": "uint256"
        }
      ],
      "stateMutability": "view",
      "type": "function"
    },
    {
      "inputs": [
        {
          "internalType": "address",
          "name": "",
          "type": "address"
        }
      ],
      "name": "users",
      "outputs": [
        {
          "internalType": "address",
          "name": "user",
          "type": "address"
        },
        {
          "internalType": "uint256",
          "name": "latitude",
          "type": "uint256"
        },
        {
          "internalType": "uint256",
          "name": "longitude",
          "type": "uint256"
        },
        {
          "internalType": "uint256",
          "name": "creditBalance",
          "type": "uint256"
        }
      ],
      "stateMutability": "view",
      "type": "function"
    }
  ],
  "bytecode": "0x608060405234801561001057600080fd5b50610897806100206000396000f3fe60806040526004361061009c5760003560e01c806341acbebd1161006457806341acbebd146101bd5780636add1b3f146101dd57806392c7a38614610213578063a87430ba14610233578063d539139314610282578063d567c752146102b657600080fd5b80630685d655146100a15780630e1111d114610124578063262afbc41461013957806332963edc1461015c5780634191c41714610190575b600080fd5b3480156100ad57600080fd5b506100f56100bc366004610763565b600060208181529281526040808220909352908152208054600182015460028301546003909301546001600160a01b0390921692909184565b604080516001600160a01b03909516855260208501939093529183015260608201526080015b60405180910390f35b610137610132366004610763565b6102d6565b005b34801561014557600080fd5b5061014e600081565b60405190815260200161011b565b34801561016857600080fd5b5061014e7f30317d22ec78f22377aeb400e492f02c987a69f6363c16b92864df4bd33428a381565b34801561019c57600080fd5b5061014e6101ab366004610785565b60026020526000908152604090205481565b3480156101c957600080fd5b506101376101d8366004610763565b6103f4565b3480156101e957600080fd5b5061014e6101f8366004610785565b6001600160a01b031660009081526002602052604090205490565b34801561021f57600080fd5b5061013761022e3660046107b5565b61049c565b34801561023f57600080fd5b506100f561024e366004610785565b600160208190526000918252604090912080549181015460028201546003909201546001600160a01b039093169290919084565b34801561028e57600080fd5b5061014e7f9f2df0fed2c77648de5860a4cc508cd0818c85b8b8a1ab4ceeef8d981c8956a681565b3480156102c257600080fd5b506101376102d13660046107e1565b61055b565b60006102e3600184610810565b905060006102f2600184610810565b9050610302565b60405180910390fd5b6000828152602081815260408083208484529091529020546001600160a01b0316156103705760405162461bcd60e51b815260206004820152601a60248201527f4c616e64206172656120697320616c7265616479206f776e656400000000000060448201526064016102f9565b600082815260208181526040808320848452825280832080546001600160a01b031916339081178255600382018590556001820189905560029091018790558151868152928301859052908201929092527f7db42eb24b615620e8c3b978a1a7973d6e8c0b773b0601a1997d04f39ebb56f99060600160405180910390a250505050565b336000908152600160208190526040822080820185905560020183905561041b9084610810565b9050600061042a600184610810565b6000838152602081815260408083208484529091529020549091506001600160a01b0316801580159061046657506001600160a01b0381163314155b15610495576000838152602081815260408083208584529091529020600301546104933383838989610607565b505b5050505050565b60006104a9600185610810565b905060006104b8600185610810565b6000838152602081815260408083208484529091529020549091506001600160a01b0316331461053c5760405162461bcd60e51b815260206004820152602960248201527f596f7520617265206e6f74207065726d697474656420746f206368616e67652060448201526874686520707269636560b81b60648201526084016102f9565b6000918252602082815260408084209284529190529020600301555050565b600081116105ab5760405162461bcd60e51b815260206004820181905260248201527f416d6f756e74206d7573742062652067726561746572207468616e207a65726f60448201526064016102f9565b33600090815260026020526040812080548392906105ca908490610832565b909155505060405181815233907f2f278cf5a42176fbdf59ee579498869d5c3005156b7a8013c5adc90797a086c59060200160405180910390a250565b824710156106575760405162461bcd60e51b815260206004820181905260248201527f496e73756666696369656e742062616c616e636520666f72207061796d656e7460448201526064016102f9565b6000846001600160a01b03168460405160006040518083038185875af1925050503d80600081146106a4576040519150601f19603f3d011682016040523d82523d6000602084013e6106a9565b606091505b50509050806106eb5760405162461bcd60e51b815260206004820152600e60248201526d14185e5b595b9d0819985a5b195960921b60448201526064016102f9565b604080518481526020810184905290810185905233907f448f4c9296ddd7d4db3c6a03cd4ce3df63ea9d49c8c65061c1a8c2b0d0de2e029060600160405180910390a26001600160a01b0386166000908152600260205260408120805486929061075690849061084a565b9091555050505050505050565b6000806040838503121561077657600080fd5b50508035926020909101359150565b60006020828403121561079757600080fd5b81356001600160a01b03811681146107ae57600080fd5b9392505050565b6000806000606084860312156107ca57600080fd5b505081359360208301359350604090920135919050565b6000602082840312156107f357600080fd5b5035919050565b634e487b7160e01b600052601160045260246000fd5b60008261082d57634e487b7160e01b600052601260045260246000fd5b500490565b60008219821115610845576108456107fa565b500190565b60008282101561085c5761085c6107fa565b50039056fea2646970667358221220eb55f8703e48a0a38ea6e485e246c39e9e4d78062fa53096497cdef4b8263f3864736f6c63430008090033",
  "linkReferences": {},
  "deployedLinkReferences": {}
}