{
  "_format": "hh-sol-artifact-1",
  "contractName": "TollsMain",
  "sourceName": "contracts/TollsMain_Hamzah.sol",
  "abi": [
    {
      "anonymous": false,
      "inputs": [
        {
          "indexed": true,
          "internalType": "address",
          "name": "buyer",
          "type": "address"
        },
        {
          "indexed": false,
          "internalType": "uint256",
          "name": "latitude",
          "type": "uint256"
        },
        {
          "indexed": false,
          "internalType": "uint256",
          "name": "longitude",
          "type": "uint256"
        },
        {
          "indexed": false,
          "internalType": "uint256",
          "name": "price",
          "type": "uint256"
        }
      ],
      "name": "LandAreaPurchased",
      "type": "event"
    },
    {
      "anonymous": false,
      "inputs": [
        {
          "indexed": true,
          "internalType": "address",
          "name": "user",
          "type": "address"
        },
        {
          "indexed": false,
          "internalType": "uint256",
          "name": "latitude",
          "type": "uint256"
        },
        {
          "indexed": false,
          "internalType": "uint256",
          "name": "longitude",
          "type": "uint256"
        },
        {
          "indexed": false,
          "internalType": "uint256",
          "name": "toll_amount",
          "type": "uint256"
        }
      ],
      "name": "TollPayment",
      "type": "event"
    },
    {
      "inputs": [],
      "name": "LAND_OWNER_ROLE",
      "outputs": [
        {
          "internalType": "bytes32",
          "name": "",
          "type": "bytes32"
        }
      ],
      "stateMutability": "view",
      "type": "function"
    },
    {
      "inputs": [],
      "name": "LAND_PRICE_IN_DOLLARS",
      "outputs": [
        {
          "internalType": "uint256",
          "name": "",
          "type": "uint256"
        }
      ],
      "stateMutability": "view",
      "type": "function"
    },
    {
      "inputs": [],
      "name": "MINTER_ROLE",
      "outputs": [
        {
          "internalType": "bytes32",
          "name": "",
          "type": "bytes32"
        }
      ],
      "stateMutability": "view",
      "type": "function"
    },
    {
      "inputs": [
        {
          "internalType": "uint256",
          "name": "latitude",
          "type": "uint256"
        },
        {
          "internalType": "uint256",
          "name": "longitude",
          "type": "uint256"
        }
      ],
      "name": "buyLandArea",
      "outputs": [],
      "stateMutability": "payable",
      "type": "function"
    },
    {
      "inputs": [
        {
          "internalType": "uint256",
          "name": "amount",
          "type": "uint256"
        }
      ],
      "name": "depositCredits",
      "outputs": [],
      "stateMutability": "payable",
      "type": "function"
    },
    {
      "inputs": [
        {
          "internalType": "address",
          "name": "account",
          "type": "address"
        }
      ],
      "name": "getBalance",
      "outputs": [
        {
          "internalType": "uint256",
          "name": "",
          "type": "uint256"
        }
      ],
      "stateMutability": "view",
      "type": "function"
    },
    {
      "inputs": [
        {
          "internalType": "uint256",
          "name": "",
          "type": "uint256"
        },
        {
          "internalType": "uint256",
          "name": "",
          "type": "uint256"
        }
      ],
      "name": "landAreas",
      "outputs": [
        {
          "internalType": "address",
          "name": "owner",
          "type": "address"
        },
        {
          "internalType": "uint256",
          "name": "latitude",
          "type": "uint256"
        },
        {
          "internalType": "uint256",
          "name": "longitude",
          "type": "uint256"
        },
        {
          "internalType": "uint256",
          "name": "price",
          "type": "uint256"
        }
      ],
      "stateMutability": "view",
      "type": "function"
    },
    {
      "inputs": [
        {
          "internalType": "uint256",
          "name": "latitude",
          "type": "uint256"
        },
        {
          "internalType": "uint256",
          "name": "longitude",
          "type": "uint256"
        },
        {
          "internalType": "uint256",
          "name": "newPrice",
          "type": "uint256"
        }
      ],
      "name": "updateLandAreaPrice",
      "outputs": [],
      "stateMutability": "nonpayable",
      "type": "function"
    },
    {
      "inputs": [
        {
          "internalType": "uint256",
          "name": "latitude",
          "type": "uint256"
        },
        {
          "internalType": "uint256",
          "name": "longitude",
          "type": "uint256"
        }
      ],
      "name": "updateLocation",
      "outputs": [],
      "stateMutability": "nonpayable",
      "type": "function"
    },
    {
      "inputs": [
        {
          "internalType": "address",
          "name": "",
          "type": "address"
        }
      ],
      "name": "userCredit",
      "outputs": [
        {
          "internalType": "uint256",
          "name": "",
          "type": "uint256"
        }
      ],
      "stateMutability": "view",
      "type": "function"
    },
    {
      "inputs": [
        {
          "internalType": "address",
          "name": "",
          "type": "address"
        }
      ],
      "name": "users",
      "outputs": [
        {
          "internalType": "address",
          "name": "userAddress",
          "type": "address"
        },
        {
          "internalType": "uint256",
          "name": "creditBalance",
          "type": "uint256"
        },
        {
          "internalType": "uint256",
          "name": "latitude",
          "type": "uint256"
        },
        {
          "internalType": "uint256",
          "name": "longitude",
          "type": "uint256"
        }
      ],
      "stateMutability": "view",
      "type": "function"
    }
  ],
  "bytecode": "0x608060405234801561001057600080fd5b506108ce806100206000396000f3fe60806040526004361061009c5760003560e01c806341acbebd1161006457806341acbebd146101bd57806392c7a386146101dd578063a87430ba146101fd578063d53913931461024c578063d567c75214610280578063f8b2cb4f1461029357600080fd5b80630685d655146100a15780630e1111d1146101245780630faa857b1461013957806332963edc1461015c5780634191c41714610190575b600080fd5b3480156100ad57600080fd5b506100f56100bc36600461077b565b600060208181529281526040808220909352908152208054600182015460028301546003909301546001600160a01b0390921692909184565b604080516001600160a01b03909516855260208501939093529183015260608201526080015b60405180910390f35b61013761013236600461077b565b6102bb565b005b34801561014557600080fd5b5061014e600a81565b60405190815260200161011b565b34801561016857600080fd5b5061014e7f30317d22ec78f22377aeb400e492f02c987a69f6363c16b92864df4bd33428a381565b34801561019c57600080fd5b5061014e6101ab36600461079d565b60026020526000908152604090205481565b3480156101c957600080fd5b506101376101d836600461077b565b610451565b3480156101e957600080fd5b506101376101f83660046107cd565b61050a565b34801561020957600080fd5b506100f561021836600461079d565b600160208190526000918252604090912080549181015460028201546003909201546001600160a01b039093169290919084565b34801561025857600080fd5b5061014e7f9f2df0fed2c77648de5860a4cc508cd0818c85b8b8a1ab4ceeef8d981c8956a681565b61013761028e3660046107f9565b61054a565b34801561029f57600080fd5b5061014e6102ae36600461079d565b6001600160a01b03163190565b60006102c8600184610828565b905060006102d7600184610828565b90506102ec600a670de0b6b3a764000061084a565b34146103365760405162461bcd60e51b8152602060048201526014602482015273125b9cdd59999a58da595b9d081c185e5b595b9d60621b60448201526064015b60405180910390fd5b6000828152602081815260408083208484529091529020546001600160a01b0316156103a45760405162461bcd60e51b815260206004820152601a60248201527f4c616e64206172656120697320616c7265616479206f776e6564000000000000604482015260640161032d565b600082815260208181526040808320848452909152902080546001600160a01b031916331790556103de600a670de0b6b3a764000061084a565b600083815260208181526040808320858452825291829020600381018490556001810188905560020186905581518581529081018490529081019190915233907f7db42eb24b615620e8c3b978a1a7973d6e8c0b773b0601a1997d04f39ebb56f99060600160405180910390a250505050565b3360009081526001602081905260408220600281018590556003018390556104799084610828565b90506000610488600184610828565b6000838152602081815260408083208484529091529020549091506001600160a01b0316610504576000828152602081815260408083208484529091529020546001600160a01b03163381146105025760008381526020818152604080832085845290915290206003015461050033838389896105c1565b505b505b50505050565b6000610517600185610828565b90506000610526600185610828565b60009283526020838152604080852092855291905290912060030191909155505050565b6000811161059a5760405162461bcd60e51b815260206004820181905260248201527f416d6f756e74206d7573742062652067726561746572207468616e207a65726f604482015260640161032d565b33600090815260026020526040812080548392906105b9908490610869565b909155505050565b824710156106235760405162461bcd60e51b815260206004820152602960248201527f496e73756666696369656e7420636f6e74726163742062616c616e636520666f6044820152681c881c185e5b595b9d60ba1b606482015260840161032d565b6000846001600160a01b03168460405160006040518083038185875af1925050503d8060008114610670576040519150601f19603f3d011682016040523d82523d6000602084013e610675565b606091505b50509050806106b75760405162461bcd60e51b815260206004820152600e60248201526d14185e5b595b9d0819985a5b195960921b604482015260640161032d565b604080518481526020810184905290810185905233907f448f4c9296ddd7d4db3c6a03cd4ce3df63ea9d49c8c65061c1a8c2b0d0de2e029060600160405180910390a26001600160a01b03861660009081526002602052604081208054869290610722908490610881565b909155505060408051848152602081018490529081018590526001600160a01b038716907f448f4c9296ddd7d4db3c6a03cd4ce3df63ea9d49c8c65061c1a8c2b0d0de2e029060600160405180910390a2505050505050565b6000806040838503121561078e57600080fd5b50508035926020909101359150565b6000602082840312156107af57600080fd5b81356001600160a01b03811681146107c657600080fd5b9392505050565b6000806000606084860312156107e257600080fd5b505081359360208301359350604090920135919050565b60006020828403121561080b57600080fd5b5035919050565b634e487b7160e01b600052601160045260246000fd5b60008261084557634e487b7160e01b600052601260045260246000fd5b500490565b600081600019048311821515161561086457610864610812565b500290565b6000821982111561087c5761087c610812565b500190565b60008282101561089357610893610812565b50039056fea2646970667358221220c07bc770f57a63da77e4fa255578eb9c6dde88d217d46bf01137a3a0abedc66d64736f6c63430008090033",
  "linkReferences": {},
  "deployedLinkReferences": {}
}